:100000000C942A000C9461010C9447000C94470056
:100010000C9447000C9447000C9447000C94470044
:100020000C9447000C942A020C9447000C9447004F
:100030000C9447000C9447000C9447000C94470024
:100040000C94FB010C9447000C9447000C9447005F
:100050000C94470011241FBECFE5D8E0DEBFCDBF12
:1000600011E0A0E6B0E0E2E3F2E102C005900D92FB
:10007000A239B107D9F711E0A2E9B1E001C01D92A0
:10008000AD39B107E1F70E94AC010C9417090C944B
:100090000000D99A000000008BB38C7F8BBB0895C1
:1000A00011BADA9A8BB3807F8BBB02C00E944900E1
:1000B0009799FCCF8FEF81BB08951F93182F0E9453
:1000C000500012BB8BB3837F8BBB0E94490012BAD6
:1000D0001F9108951F93182F0E94500012BBDA98A9
:1000E000DB9A0E94490012BA1F910895CF93DF93C3
:1000F000EC0103C021960E946A0088818823D1F711
:10010000DF91CF9108958158E9E7F0E0E60FF11D06
:100110009081890F0E945D0008950F931F938A01BB
:100120000E948300C8010E9476001F910F910895DC
:100130001F938AB38E608ABB86EA9EE00197F1F72F
:1001400081E00E945D0084EF91E00197F1F788E380
:100150000E945D0010E1812F8A95F1F78EE00E94E8
:100160005D001A95F1F71F910895A898A09A80EA6A
:100170008A95F1F7A09884E18A95F1F783B39CE81A
:100180009A95F1F781700895A898A09A91E09A95B0
:10019000F1F78111A09884E18A95F1F7A09808956C
:1001A000A898A09A81E08A95F1F7A09884E08A95B2
:1001B000F1F783B39FE09A95F1F7817008950F935B
:1001C0001F93082F18E005C0802F81700E94C40083
:1001D00006951150C8F71F910F9108950F931F9323
:1001E00008E010E009C00E94D000912F9695182FCA
:1001F000179511271795192B0150A8F7812F1F91DB
:100200000F9108951F930E94B5008CEC0E94DF00AF
:1002100084E40E94DF000E94D0008823E1F30E9462
:10022000B5008CEC0E94DF008EEB0E94DF000E9484
:10023000EE00182F0E94EE00382F20E0210F311D14
:10024000442737FD4095542FCA01B9010E94F40597
:1002500020E030E040E85DE30E94CA041F91089569
:1002600089B990BD86E880BD88E18AB908955D9B13
:10027000FECF509890FD509A8CB908958D9A8FB505
:1002800082688FBD8EB58A618EBD84E294EF97BD82
:1002900086BD1BBC1ABC1DBC1CBC89B7846089BF51
:1002A000089585B7836085BFB89A8BB780648BBF8C
:1002B0000895329A87B1806C87B9339A379A369A03
:1002C00008951F920F920FB60F9211242F933F9310
:1002D0004F935F936F937F938F939F93AF93BF934E
:1002E000EF93FF938BB78BBF80919401882379F4B0
:1002F00081E080939401C09A339861E040E650E039
:100300000E948D008DE061E04EE650E00BC0813030
:1003100059F4109294011BBC1ABCC098339A61E046
:1003200040E750E00E948D008AEF90E00197F1F7DE
:100330008BB780648BBFFF91EF91BF91AF919F917D
:100340008F917F916F915F914F913F912F910F907E
:100350000FBE0F901F9018950E94510189E189B935
:1003600010BC86E880BD88E18AB90E943E010E94E7
:1003700059010E94980081E061E040E750E00E944E
:100380008D007894FFCFCF92DF92EF92FF920F9380
:100390001F93DF93CF93CDB7DEB7D82EC62ECA01F9
:1003A000EDB6FEB64DB75EB7421B51090FB6F894D5
:1003B0005EBF0FBE4DBF0DB71EB70F5F1F4FB80119
:1003C0004AE050E00E94D2088D2D6C2DA8010E94B9
:1003D0008D008EE690E00E9476000FB6F894FEBE87
:1003E0000FBEEDBECF91DF911F910F91FF90EF9067
:1003F000DF90CF9008951F920F920FB60F921124A5
:100400002F933F934F935F936F937F938F939F931C
:10041000AF93BF93EF93FF9384B125B1522F40E088
:1004200090E0482B592B8DE061E024E00E94C3014D
:10043000369AFF91EF91BF91AF919F918F917F91EC
:100440006F915F914F913F912F910F900FBE0F9041
:100450001F9018951F920F920FB60F9211249F9222
:10046000AF92BF92CF92DF92EF92FF920F931F93C2
:100470002F933F934F935F936F937F938F939F93AC
:10048000AF93BF93EF93FF9380919401813029F450
:10049000809193018F5F80939301809193018431C8
:1004A00008F4B4C0109293010E9402016093990174
:1004B00070939A0180939B0190939C010E94520635
:1004C0009B01AC018DE061E0A90124E00E94C30121
:1004D00060917E0070917F008091800090918100FA
:1004E0002091990130919A0140919B0150919C017A
:1004F0000E946C047B018C010E9452069B0177FFD5
:1005000003C0309521953F4F8091880090E09090F6
:100510008600821793076CF4692D70E0882777FDB9
:100520008095982F0E94F405A80197010E94CA04A3
:1005300037C0C801B70120919501309196014091D3
:100540009701509198010E949D045B016C0160939A
:100550009501709396018093970190939801692D6E
:1005600070E0882777FD8095982F0E94F405A801F8
:1005700097010E94CA047B018C016091870070E0A2
:10058000882777FD8095982F0E94F405A601950194
:100590000E94CA049B01AC01C801B7010E949D04DE
:1005A0006093820070938300809384009093850011
:1005B0006091820070918300809184009091850009
:1005C00020E030E048EC52E40E94C405181664F4C0
:1005D00080E090E0A8ECB2E48093820090938300E6
:1005E000A0938400B0938500609182007091830095
:1005F000809184009091850020E030E44CE154E447
:100600000E94CA040E9452067BBD6ABDFF91EF9111
:10061000BF91AF919F918F917F916F915F914F911A
:100620003F912F911F910F91FF90EF90DF90CF900E
:10063000BF90AF909F900F900FBE0F901F90189596
:10064000A0E0B0E0E6E2F3E00C949B08DC012B01B3
:10065000FA019C91923008F439C1EB018881823013
:1006600008F433C1943069F4843009F02FC1119635
:100670009C9111978981981709F428C1A9E8B0E0E5
:1006800025C1843009F421C18230A9F4923009F0E7
:100690001DC19A01AD0188E0EA010990AE01E901AE
:1006A00009929E018150C1F7E201898111969C91C6
:1006B0008923818308C1923009F407C112962D90D5
:1006C0003C901397EB018A819B811496AD90BD906D
:1006D000CD90DC901797EC80FD800E811F819101F9
:1006E000281B390BB90137FF04C066277727621B27
:1006F000730B603271050CF061C0121613066CF5B5
:1007000037014801062E04C0969487947794679425
:100710000A94D2F721E030E040E050E004C0220F1C
:10072000331F441F551F6A95D2F721503040404077
:1007300050402E213F2140235123211531054105F1
:10074000510521F021E030E040E050E079018A01DC
:10075000E628F728082919293CC0232BD1F1260EB9
:10076000371E35014601062E04C09694879477946F
:1007700067940A94D2F721E030E040E050E004C0F2
:10078000220F331F441F551F6A95D2F72150304066
:10079000404050402A213B214C215D21211531054B
:1007A0004105510521F021E030E040E050E05901E1
:1007B0006A01A628B728C828D9280BC08215930536
:1007C0002CF01C01AA24BB24650103C0EE24FF24E5
:1007D000870111969C91D20111968C91981709F47A
:1007E00045C0992339F0A80197012A193B094C0902
:1007F0005D0906C0A60195012E193F09400B510B5A
:1008000057FD08C0118233822282248335834683B8
:1008100057831DC081E081833382228288279927F4
:10082000DC01821B930BA40BB50B84839583A683F9
:10083000B7830DC0220F331F441F551F24833583F8
:100840004683578382819381019793838283248196
:10085000358146815781DA01C9010197A109B109A2
:100860008F5F9F4FAF4FBF4328F30BC091833382FD
:100870002282EA0CFB1C0C1D1D1DE482F5820683FE
:10088000178383E08083248135814681578157FF18
:100890001AC0C901AA2797FDA095BA2F8170907040
:1008A000A070B0705695479537952795822B932B5E
:1008B000A42BB52B84839583A683B78382819381F0
:1008C000019693838283DF0101C0D201CD01CDB7B0
:1008D000DEB7E2E10C94B708A0E2B0E0E2E7F4E0B2
:1008E0000C94A70869837A838B839C832D833E8332
:1008F0004F835887E9E0EE2EF12CEC0EFD1ECE0161
:100900000196B7010E94CA078E010F5E1F4FCE01EC
:100910000596B8010E94CA078A8991E089278A8BC7
:10092000C701B801AE01475E5F4F0E9420030E94DD
:10093000F506A096E6E00C94C308A0E2B0E0E3EA76
:10094000F4E00C94A70869837A838B839C832D83BE
:100950003E834F835887F9E0EF2EF12CEC0EFD1EFD
:10096000CE010196B7010E94CA078E010F5E1F4F8C
:10097000CE010596B8010E94CA07C701B801AE01B1
:10098000475E5F4F0E9420030E94F506A096E6E0B6
:100990000C94C308A0E2B0E0E0EDF4E00C949B08F6
:1009A00069837A838B839C832D833E834F8358870F
:1009B000CE010196BE01675F7F4F0E94CA07CE013C
:1009C0000596BE016F5E7F4F0E94CA0799859230DF
:1009D00088F089898230C8F0943019F4823051F45B
:1009E00004C0843029F4923081F489E890E0C6C0D4
:1009F000923049F420E09A858A89981321E02A8769
:100A0000CE010996BBC0823049F420E09A858A89DC
:100A1000981321E02A8BCE014196B0C02D843E84EC
:100A20004F8458886D887E888F88988CEE24FF24A8
:100A30008701AA24BB24650140E050E060E070E03B
:100A4000E0E0F0E0C10181709070892BE9F0E60CE4
:100A5000F71C081D191D9A01AB012A0D3B1D4C1DE9
:100A60005D1D80E090E0A0E0B0E0E614F70408052A
:100A7000190520F481E090E0A0E0B0E0BA01A901FE
:100A8000480F591F6A1F7B1FAA0CBB1CCC1CDD1C06
:100A900097FE08C081E090E0A0E0B0E0A82AB92A63
:100AA000CA2ADB2A3196E032F10549F0660C771C40
:100AB000881C991C5694479437942794C3CFFA8581
:100AC000EA892B893C898B859C85280F391F2E5FED
:100AD0003F4F17C0CA0181709070892B61F0169545
:100AE0000795F794E79480E090E0A0E0B0E8E82A6A
:100AF000F92A0A2B1B2B76956795579547952F5FFB
:100B00003F4F77FDE7CF0CC0440F551F661F771F7F
:100B100017FD4160EE0CFF1C001F111F21503040DB
:100B2000403090E0590790E0690790E4790760F35E
:100B30002B8F3C8FDB01CA018F779070A070B07053
:100B400080349105A105B10561F447FD0AC0E114A7
:100B5000F1040105110529F0405C5F4F6F4F7F4F95
:100B600040781A8EFE1711F081E08A8F4D8F5E8FCC
:100B70006F8F78A383E0898FCE0149960E94F50696
:100B8000A096E2E10C94B708A8E1B0E0EAECF5E049
:100B90000C94A70869837A838B839C832D833E837F
:100BA0004F83588789E0E82EF12CEC0EFD1ECE0114
:100BB0000196B7010E94CA078E010F5E1F4FCE013A
:100BC0000596B8010E94CA078985823040F089895C
:100BD000823028F0C701B8010E94420801C08FEF9F
:100BE0006896E6E00C94C308A8E0B0E0EAEFF5E010
:100BF0000C94A4089B01AC0183E08983DA01C9014C
:100C00008827B7FD83959927AA27BB27B82E2115DA
:100C100031054105510519F482E089833AC08823E2
:100C2000A9F0203080E0380780E0480780E85807C6
:100C300029F460E070E080E09FEC30C0EE24FF24F7
:100C40008701E21AF30A040B150B02C079018A012D
:100C50008EE1C82ED12CDC82CB82ED82FE820F8306
:100C60001887C801B7010E94A60601971816190631
:100C700084F4082E04C0EE0CFF1C001F111F0A9400
:100C8000D2F7ED82FE820F831887C81AD90ADC8258
:100C9000CB82BA82CE0101960E94F5062896E9E041
:100CA0000C94C008ACE0B0E0E8E5F6E00C94AB08CA
:100CB00069837A838B839C83CE010196BE016B5F2F
:100CC0007F4F0E94CA078D81823061F1823050F1DE
:100CD000843021F48E81882351F12EC02F813885F4
:100CE00037FD20C06E812F3131051CF06623F9F0ED
:100CF00023C08EE190E0821B930B29853A854B85BA
:100D00005C8504C056954795379527958A95D2F707
:100D10006623B1F050954095309521953F4F4F4F48
:100D20005F4F0EC020E030E040E050E009C02FEF00
:100D30003FEF4FEF5FE704C020E030E040E050E8D5
:100D4000B901CA012C96E2E00C94C708EF92FF9219
:100D50000F931F937B018C0180E0E81680E0F8067A
:100D600081E0080780E0180788F48FEFE816F104A7
:100D70000105110531F028F088E090E0A0E0B0E036
:100D800017C080E090E0A0E0B0E012C080E0E8167C
:100D900080E0F80680E0080781E0180728F088E185
:100DA00090E0A0E0B0E004C080E190E0A0E0B0E01E
:100DB00020E230E040E050E0281B390B4A0B5B0B8F
:100DC00004C016950795F794E7948A95D2F7F70132
:100DD000EF56FF4F8081281B310941095109C90194
:100DE0001F910F91FF90EF900895DF92EF92FF9285
:100DF0000F931F93FC01E480F58006811781D18059
:100E00008081823048F480E090E0A0E1B0E0E82A00
:100E1000F92A0A2B1B2BA5C0843009F49FC082300D
:100E200021F4EE24FF24870105C0E114F10401053B
:100E3000110519F4E0E0F0E096C0628173819FEF44
:100E4000623879070CF05BC022E83FEF261B370BB6
:100E50002A3131052CF020E030E040E050E02AC09B
:100E6000B801A701022E04C076956795579547955E
:100E70000A94D2F781E090E0A0E0B0E004C0880FCF
:100E8000991FAA1FBB1F2A95D2F70197A109B10983
:100E90008E219F21A023B1230097A105B10521F048
:100EA00081E090E0A0E0B0E09A01AB01282B392B63
:100EB0004A2B5B2BDA01C9018F779070A070B0705C
:100EC00080349105A105B10539F427FF09C0205CE4
:100ED0003F4F4F4F5F4F04C0215C3F4F4F4F5F4F1D
:100EE000E0E0F0E02030A0E03A07A0E04A07A0E40C
:100EF0005A0710F0E1E0F0E079018A0127C060387C
:100F0000710564F5FB01E158FF4FD801C7018F77E8
:100F10009070A070B07080349105A105B10539F4CE
:100F2000E7FE0DC080E490E0A0E0B0E004C08FE3F5
:100F300090E0A0E0B0E0E80EF91E0A1F1B1F17FFAB
:100F400005C016950795F794E794319687E01695B6
:100F50000795F794E7948A95D1F705C0EE24FF240E
:100F60008701EFEFF0E06E2F679566276795902F6A
:100F70009F77D794DD24D7948E2F8695492F462BC3
:100F8000582F5D29B701CA011F910F91FF90EF9073
:100F9000DF900895FC01DB01408151812281622FA5
:100FA0006F7770E0221F2227221F9381892F880FDD
:100FB000822B282F30E0991F9927991F11969C9317
:100FC000119721153105A9F54115510561057105E7
:100FD00011F482E037C082E89FEF13969C938E93C2
:100FE00012979A01AB0167E0220F331F441F551F70
:100FF0006A95D1F783E08C930DC0220F331F441FF5
:10100000551F12968D919C911397019713969C935F
:101010008E931297203080E0380780E0480780E404
:10102000580758F314962D933D934D935C9317975F
:1010300008952F3F310579F441155105610571057A
:1010400019F484E08C93089564FF03C081E08C93CD
:1010500012C01C9210C02F57304013963C932E9311
:10106000129783E08C9387E0440F551F661F771F0C
:101070008A95D1F7706414964D935D936D937C932C
:10108000179708951F93DC01FB019C91923008F49F
:1010900047C08081823008F443C0943051F41196E7
:1010A0001C91843099F58181682F70E0611B710972
:1010B0003FC0843021F0923031F48230B9F1818127
:1010C000882389F12DC011961C9111978230F1F07F
:1010D00081811817D9F412962D913C911397828132
:1010E00093818217930794F028173907BCF0149660
:1010F0008D919D910D90BC91A02D248135814681CB
:101100005781281739074A075B0718F4112341F064
:101110000AC082179307A407B50740F4112319F0FA
:1011200061E070E005C06FEF7FEF02C060E070E04B
:10113000CB011F9108952F923F924F925F926F9231
:101140007F928F929F92AF92BF92CF92DF92EF9257
:10115000FF920F931F93CF93DF93CDB7DEB7CA1BD8
:10116000DB0B0FB6F894DEBF0FBECDBF09942A8803
:10117000398848885F846E847D848C849B84AA84AB
:10118000B984C884DF80EE80FD800C811B81AA8138
:10119000B981CE0FD11D0FB6F894DEBF0FBECDBF03
:1011A000ED010895FB019F01E8944230C4F04532FF
:1011B000B4F44A3029F497FB1EF4909581959F4F23
:1011C000642F77270E940309805D8A330CF0895DC4
:1011D0008193CB010097A1F716F45DE25193108241
:1011E000C9010C94F308DC01FC01672F719177238E
:1011F000E1F7329704C07C916D9370836291AE17D2
:10120000BF07C8F30895AA1BBB1B51E107C0AA1F63
:10121000BB1FA617B70710F0A61BB70B881F991F97
:101220005A95A9F780959095BC01CD010895F89441
:02123000FFCFEE
:1012320043757272656E742054656D703A002000B9
:101242005365742054656D703A00004014540000D8
:101252008C420000C842320202000000000000007E
:10126200000001020203030303040404040404044F
:10127200040505050505050505050505050505051D
:1012820005060606060606060606060606060606FD
:1012920006060606060606060606060606060606EC
:1012A20006070707070707070707070707070707CD
:1012B20007070707070707070707070707070707BC
:1012C20007070707070707070707070707070707AC
:1012D200070707070707070707070707070707079C
:1012E200070808080808080808080808080808087D
:1012F200080808080808080808080808080808086C
:10130200080808080808080808080808080808085B
:10131200080808080808080808080808080808084B
:10132200080808080808080808080808080808083B
:10133200080808080808080808080808080808082B
:10134200080808080808080808080808080808081B
:10135200080808080808080808080808080808080B
:02136200080081
:00000001FF
